{
  "contractName": "HawkerHut",
  "abi": [
    {
      "inputs": [
        {
          "internalType": "string",
          "name": "id",
          "type": "string"
        }
      ],
      "name": "pay",
      "outputs": [],
      "stateMutability": "payable",
      "type": "function",
      "payable": true
    },
    {
      "inputs": [
        {
          "internalType": "string",
          "name": "id",
          "type": "string"
        }
      ],
      "name": "hawkerId",
      "outputs": [],
      "stateMutability": "nonpayable",
      "type": "function"
    },
    {
      "inputs": [
        {
          "internalType": "string",
          "name": "id",
          "type": "string"
        }
      ],
      "name": "cancelPayment",
      "outputs": [],
      "stateMutability": "nonpayable",
      "type": "function"
    },
    {
      "inputs": [
        {
          "internalType": "string",
          "name": "id",
          "type": "string"
        }
      ],
      "name": "partialPayment",
      "outputs": [],
      "stateMutability": "nonpayable",
      "type": "function"
    },
    {
      "inputs": [
        {
          "internalType": "string",
          "name": "id",
          "type": "string"
        }
      ],
      "name": "completePayment",
      "outputs": [],
      "stateMutability": "nonpayable",
      "type": "function"
    },
    {
      "inputs": [
        {
          "internalType": "string",
          "name": "id",
          "type": "string"
        }
      ],
      "name": "hawker_withdraw",
      "outputs": [],
      "stateMutability": "nonpayable",
      "type": "function"
    }
  ],
  "bytecode": "0x608060405234801561001057600080fd5b50610ea7806100206000396000f3fe6080604052600436106100555760003560e01c80632b66d72e1461005a57806332410f651461007657806373dc16061461009f57806384126e01146100c8578063b6b89528146100f1578063fb2b20561461011a575b600080fd5b610074600480360381019061006f9190610a8d565b610143565b005b34801561008257600080fd5b5061009d60048036038101906100989190610a8d565b61029c565b005b3480156100ab57600080fd5b506100c660048036038101906100c19190610a8d565b610438565b005b3480156100d457600080fd5b506100ef60048036038101906100ea9190610a8d565b6105e0565b005b3480156100fd57600080fd5b5061011860048036038101906101139190610a8d565b610788565b005b34801561012657600080fd5b50610141600480360381019061013c9190610a8d565b6108d0565b005b67016345785d8a0000341161018d576040517f08c379a000000000000000000000000000000000000000000000000000000000815260040161018490610b59565b60405180910390fd5b3360008260405161019e9190610bf3565b908152602001604051809103902060000160006101000a81548173ffffffffffffffffffffffffffffffffffffffff021916908373ffffffffffffffffffffffffffffffffffffffff160217905550336000826040516101fe9190610bf3565b908152602001604051809103902060010160006101000a81548173ffffffffffffffffffffffffffffffffffffffff021916908373ffffffffffffffffffffffffffffffffffffffff1602179055503460008260405161025e9190610bf3565b908152602001604051809103902060020181905550600080826040516102849190610bf3565b90815260200160405180910390206003018190555050565b3373ffffffffffffffffffffffffffffffffffffffff166000826040516102c39190610bf3565b908152602001604051809103902060000160009054906101000a900473ffffffffffffffffffffffffffffffffffffffff1673ffffffffffffffffffffffffffffffffffffffff161461034b576040517f08c379a000000000000000000000000000000000000000000000000000000000815260040161034290610c56565b60405180910390fd5b6000600260008360405161035f9190610bf3565b90815260200160405180910390206002015461037b9190610cde565b90508060008360405161038e9190610bf3565b908152602001604051809103902060020160008282546103ae9190610d0f565b92505081905550806000836040516103c69190610bf3565b908152602001604051809103902060030160008282546103e69190610d43565b925050819055503373ffffffffffffffffffffffffffffffffffffffff166108fc829081150290604051600060405180830381858888f19350505050158015610433573d6000803e3d6000fd5b505050565b3373ffffffffffffffffffffffffffffffffffffffff1660008260405161045f9190610bf3565b908152602001604051809103902060010160009054906101000a900473ffffffffffffffffffffffffffffffffffffffff1673ffffffffffffffffffffffffffffffffffffffff16146104e7576040517f08c379a00000000000000000000000000000000000000000000000000000000081526004016104de90610de5565b60405180910390fd5b600080826040516104f89190610bf3565b9081526020016040518091039020600301541161054a576040517f08c379a000000000000000000000000000000000000000000000000000000000815260040161054190610e51565b60405180910390fd5b6000808260405161055b9190610bf3565b9081526020016040518091039020600301549050600080836040516105809190610bf3565b9081526020016040518091039020600301819055503373ffffffffffffffffffffffffffffffffffffffff166108fc829081150290604051600060405180830381858888f193505050501580156105db573d6000803e3d6000fd5b505050565b3373ffffffffffffffffffffffffffffffffffffffff166000826040516106079190610bf3565b908152602001604051809103902060000160009054906101000a900473ffffffffffffffffffffffffffffffffffffffff1673ffffffffffffffffffffffffffffffffffffffff161461068f576040517f08c379a000000000000000000000000000000000000000000000000000000000815260040161068690610c56565b60405180910390fd5b600080826040516106a09190610bf3565b908152602001604051809103902060020154116106f2576040517f08c379a00000000000000000000000000000000000000000000000000000000081526004016106e990610e51565b60405180910390fd5b600080826040516107039190610bf3565b9081526020016040518091039020600201549050600080836040516107289190610bf3565b9081526020016040518091039020600201819055503373ffffffffffffffffffffffffffffffffffffffff166108fc829081150290604051600060405180830381858888f19350505050158015610783573d6000803e3d6000fd5b505050565b3373ffffffffffffffffffffffffffffffffffffffff166000826040516107af9190610bf3565b908152602001604051809103902060000160009054906101000a900473ffffffffffffffffffffffffffffffffffffffff1673ffffffffffffffffffffffffffffffffffffffff1614610837576040517f08c379a000000000000000000000000000000000000000000000000000000000815260040161082e90610c56565b60405180910390fd5b600080826040516108489190610bf3565b90815260200160405180910390206002015490508060008360405161086d9190610bf3565b9081526020016040518091039020600201600082825461088d9190610d0f565b92505081905550806000836040516108a59190610bf3565b908152602001604051809103902060030160008282546108c59190610d43565b925050819055505050565b336000826040516108e19190610bf3565b908152602001604051809103902060010160006101000a81548173ffffffffffffffffffffffffffffffffffffffff021916908373ffffffffffffffffffffffffffffffffffffffff16021790555050565b6000604051905090565b600080fd5b600080fd5b600080fd5b600080fd5b6000601f19601f8301169050919050565b7f4e487b7100000000000000000000000000000000000000000000000000000000600052604160045260246000fd5b61099a82610951565b810181811067ffffffffffffffff821117156109b9576109b8610962565b5b80604052505050565b60006109cc610933565b90506109d88282610991565b919050565b600067ffffffffffffffff8211156109f8576109f7610962565b5b610a0182610951565b9050602081019050919050565b82818337600083830152505050565b6000610a30610a2b846109dd565b6109c2565b905082815260208101848484011115610a4c57610a4b61094c565b5b610a57848285610a0e565b509392505050565b600082601f830112610a7457610a73610947565b5b8135610a84848260208601610a1d565b91505092915050565b600060208284031215610aa357610aa261093d565b5b600082013567ffffffffffffffff811115610ac157610ac0610942565b5b610acd84828501610a5f565b91505092915050565b600082825260208201905092915050565b7f596f75206e65656420746f20706179206d6f7265207468616e20302e3165746860008201527f6572000000000000000000000000000000000000000000000000000000000000602082015250565b6000610b43602283610ad6565b9150610b4e82610ae7565b604082019050919050565b60006020820190508181036000830152610b7281610b36565b9050919050565b600081519050919050565b600081905092915050565b60005b83811015610bad578082015181840152602081019050610b92565b83811115610bbc576000848401525b50505050565b6000610bcd82610b79565b610bd78185610b84565b9350610be7818560208601610b8f565b80840191505092915050565b6000610bff8284610bc2565b915081905092915050565b7f596f7520617265206e6f742074686520637573746f6d65720000000000000000600082015250565b6000610c40601883610ad6565b9150610c4b82610c0a565b602082019050919050565b60006020820190508181036000830152610c6f81610c33565b9050919050565b6000819050919050565b7f4e487b7100000000000000000000000000000000000000000000000000000000600052601260045260246000fd5b7f4e487b7100000000000000000000000000000000000000000000000000000000600052601160045260246000fd5b6000610ce982610c76565b9150610cf483610c76565b925082610d0457610d03610c80565b5b828204905092915050565b6000610d1a82610c76565b9150610d2583610c76565b925082821015610d3857610d37610caf565b5b828203905092915050565b6000610d4e82610c76565b9150610d5983610c76565b9250827fffffffffffffffffffffffffffffffffffffffffffffffffffffffffffffffff03821115610d8e57610d8d610caf565b5b828201905092915050565b7f596f7520617265206e6f7420746865206861776b657200000000000000000000600082015250565b6000610dcf601683610ad6565b9150610dda82610d99565b602082019050919050565b60006020820190508181036000830152610dfe81610dc2565b9050919050565b7f596f752068617665206e6f206d6f6e657920746f207769746864726177000000600082015250565b6000610e3b601d83610ad6565b9150610e4682610e05565b602082019050919050565b60006020820190508181036000830152610e6a81610e2e565b905091905056fea2646970667358221220a334a1b5bc4ce577fb6eea77fce4e3c87bd894afe2e6b5f604d921b35d2b958a64736f6c634300080b0033",
  "immutableReferences": {},
  "source": "// SPDX-License-Identifier: MIT\r\npragma solidity >=0.4.22 <0.9.0;\r\n\r\ncontract HawkerHut {\r\n    struct details{\r\n        address payable customer;\r\n        address payable hawker;\r\n        uint256 cus_amount;\r\n        uint256 hawker_amount;\r\n    }\r\n    mapping (string => details) hawkerStalls;\r\n\r\n    //Customer side-> approve function (where customer address is noted and customer pays)\r\n    function pay(string memory id) public payable {\r\n        require(msg.value > 0.1 ether, \"You need to pay more than 0.1ether\");\r\n        hawkerStalls[id].customer = payable(msg.sender);\r\n        hawkerStalls[id].hawker = payable(msg.sender);\r\n        hawkerStalls[id].cus_amount = msg.value;\r\n        hawkerStalls[id].hawker_amount = 0;\r\n    }\r\n\r\n    //Hawker side-> accept function (where hawker address is noted)\r\n    function hawkerId(string memory id) public {\r\n        hawkerStalls[id].hawker = payable(msg.sender);\r\n    }\r\n\r\n\r\n    //Customer side-> cancel function (where customer can cancel the payment and withdraw the money)\r\n    function cancelPayment(string memory id) public {\r\n        require(hawkerStalls[id].customer == msg.sender, \"You are not the customer\");\r\n        require(hawkerStalls[id].cus_amount > 0, \"You have no money to withdraw\");\r\n        uint256 amounte = hawkerStalls[id].cus_amount;\r\n        hawkerStalls[id].cus_amount = 0;\r\n        payable(msg.sender).transfer(amounte); \r\n    }\r\n\r\n\r\n    //Customer side-> partial payment function \r\n    //(where customer can assign half the amount to hawker and withdraw rest)\r\n    function partialPayment(string memory id) public {\r\n        require(hawkerStalls[id].customer == msg.sender, \"You are not the customer\");\r\n        uint256 amount = hawkerStalls[id].cus_amount/2;\r\n        hawkerStalls[id].cus_amount -= amount;\r\n        hawkerStalls[id].hawker_amount += amount;\r\n        payable(msg.sender).transfer(amount); \r\n    }\r\n\r\n\r\n    //Customer side-> complete payment function\r\n    //(where customer can assign the complete amount to hawker)\r\n    function completePayment(string memory id) public {\r\n        require(hawkerStalls[id].customer == msg.sender, \"You are not the customer\");\r\n        uint256 amount = hawkerStalls[id].cus_amount;\r\n        hawkerStalls[id].cus_amount -= amount;\r\n        hawkerStalls[id].hawker_amount += amount;\r\n    }\r\n    \r\n\r\n    //Hawker side-> withdraw function (where hawker can withdraw the money)\r\n    function hawker_withdraw(string memory id) public {\r\n        require(hawkerStalls[id].hawker == msg.sender, \"You are not the hawker\");\r\n        require(hawkerStalls[id].hawker_amount > 0, \"You have no money to withdraw\");\r\n        uint256 amounte = hawkerStalls[id].hawker_amount;\r\n        hawkerStalls[id].hawker_amount = 0;\r\n        payable(msg.sender).transfer(amounte); \r\n    }\r\n}",
  "sourcePath": "D:\\codes\\trufflebox\\react-box\\truffle\\contracts\\HawkerHut.sol",
  "compiler": {
    "name": "solc",
    "version": "0.8.11+commit.d7f03943.Emscripten.clang"
  },
  "schemaVersion": "3.4.4",
  "updatedAt": "2023-06-23T09:30:18.946Z",
  "networkType": "ethereum",
  "devdoc": {
    "kind": "dev",
    "methods": {},
    "version": 1
  },
  "userdoc": {
    "kind": "user",
    "methods": {},
    "version": 1
  }
}